{
  "_format": "hh-sol-artifact-1",
  "contractName": "NFTCollectible",
  "sourceName": "contracts/NFTCollectible.sol",
  "abi": [
    {
      "inputs": [
        {
          "internalType": "string",
          "name": "baseURI",
          "type": "string"
        }
      ],
      "stateMutability": "nonpayable",
      "type": "constructor"
    },
    {
      "anonymous": false,
      "inputs": [
        {
          "indexed": true,
          "internalType": "address",
          "name": "owner",
          "type": "address"
        },
        {
          "indexed": true,
          "internalType": "address",
          "name": "approved",
          "type": "address"
        },
        {
          "indexed": true,
          "internalType": "uint256",
          "name": "tokenId",
          "type": "uint256"
        }
      ],
      "name": "Approval",
      "type": "event"
    },
    {
      "anonymous": false,
      "inputs": [
        {
          "indexed": true,
          "internalType": "address",
          "name": "owner",
          "type": "address"
        },
        {
          "indexed": true,
          "internalType": "address",
          "name": "operator",
          "type": "address"
        },
        {
          "indexed": false,
          "internalType": "bool",
          "name": "approved",
          "type": "bool"
        }
      ],
      "name": "ApprovalForAll",
      "type": "event"
    },
    {
      "anonymous": false,
      "inputs": [
        {
          "indexed": true,
          "internalType": "address",
          "name": "previousOwner",
          "type": "address"
        },
        {
          "indexed": true,
          "internalType": "address",
          "name": "newOwner",
          "type": "address"
        }
      ],
      "name": "OwnershipTransferred",
      "type": "event"
    },
    {
      "anonymous": false,
      "inputs": [
        {
          "indexed": true,
          "internalType": "address",
          "name": "from",
          "type": "address"
        },
        {
          "indexed": true,
          "internalType": "address",
          "name": "to",
          "type": "address"
        },
        {
          "indexed": true,
          "internalType": "uint256",
          "name": "tokenId",
          "type": "uint256"
        }
      ],
      "name": "Transfer",
      "type": "event"
    },
    {
      "inputs": [],
      "name": "MAX_PER_MINT",
      "outputs": [
        {
          "internalType": "uint256",
          "name": "",
          "type": "uint256"
        }
      ],
      "stateMutability": "view",
      "type": "function"
    },
    {
      "inputs": [],
      "name": "MAX_SUPPLY",
      "outputs": [
        {
          "internalType": "uint256",
          "name": "",
          "type": "uint256"
        }
      ],
      "stateMutability": "view",
      "type": "function"
    },
    {
      "inputs": [],
      "name": "PRICE",
      "outputs": [
        {
          "internalType": "uint256",
          "name": "",
          "type": "uint256"
        }
      ],
      "stateMutability": "view",
      "type": "function"
    },
    {
      "inputs": [
        {
          "internalType": "address",
          "name": "to",
          "type": "address"
        },
        {
          "internalType": "uint256",
          "name": "tokenId",
          "type": "uint256"
        }
      ],
      "name": "approve",
      "outputs": [],
      "stateMutability": "nonpayable",
      "type": "function"
    },
    {
      "inputs": [
        {
          "internalType": "address",
          "name": "owner",
          "type": "address"
        }
      ],
      "name": "balanceOf",
      "outputs": [
        {
          "internalType": "uint256",
          "name": "",
          "type": "uint256"
        }
      ],
      "stateMutability": "view",
      "type": "function"
    },
    {
      "inputs": [],
      "name": "baseTokenURI",
      "outputs": [
        {
          "internalType": "string",
          "name": "",
          "type": "string"
        }
      ],
      "stateMutability": "view",
      "type": "function"
    },
    {
      "inputs": [
        {
          "internalType": "uint256",
          "name": "tokenId",
          "type": "uint256"
        }
      ],
      "name": "getApproved",
      "outputs": [
        {
          "internalType": "address",
          "name": "",
          "type": "address"
        }
      ],
      "stateMutability": "view",
      "type": "function"
    },
    {
      "inputs": [
        {
          "internalType": "address",
          "name": "owner",
          "type": "address"
        },
        {
          "internalType": "address",
          "name": "operator",
          "type": "address"
        }
      ],
      "name": "isApprovedForAll",
      "outputs": [
        {
          "internalType": "bool",
          "name": "",
          "type": "bool"
        }
      ],
      "stateMutability": "view",
      "type": "function"
    },
    {
      "inputs": [
        {
          "internalType": "uint256",
          "name": "_count",
          "type": "uint256"
        }
      ],
      "name": "mintNFTs",
      "outputs": [],
      "stateMutability": "payable",
      "type": "function"
    },
    {
      "inputs": [],
      "name": "name",
      "outputs": [
        {
          "internalType": "string",
          "name": "",
          "type": "string"
        }
      ],
      "stateMutability": "view",
      "type": "function"
    },
    {
      "inputs": [],
      "name": "owner",
      "outputs": [
        {
          "internalType": "address",
          "name": "",
          "type": "address"
        }
      ],
      "stateMutability": "view",
      "type": "function"
    },
    {
      "inputs": [
        {
          "internalType": "uint256",
          "name": "tokenId",
          "type": "uint256"
        }
      ],
      "name": "ownerOf",
      "outputs": [
        {
          "internalType": "address",
          "name": "",
          "type": "address"
        }
      ],
      "stateMutability": "view",
      "type": "function"
    },
    {
      "inputs": [],
      "name": "renounceOwnership",
      "outputs": [],
      "stateMutability": "nonpayable",
      "type": "function"
    },
    {
      "inputs": [],
      "name": "reserveNFTs",
      "outputs": [],
      "stateMutability": "nonpayable",
      "type": "function"
    },
    {
      "inputs": [
        {
          "internalType": "address",
          "name": "from",
          "type": "address"
        },
        {
          "internalType": "address",
          "name": "to",
          "type": "address"
        },
        {
          "internalType": "uint256",
          "name": "tokenId",
          "type": "uint256"
        }
      ],
      "name": "safeTransferFrom",
      "outputs": [],
      "stateMutability": "nonpayable",
      "type": "function"
    },
    {
      "inputs": [
        {
          "internalType": "address",
          "name": "from",
          "type": "address"
        },
        {
          "internalType": "address",
          "name": "to",
          "type": "address"
        },
        {
          "internalType": "uint256",
          "name": "tokenId",
          "type": "uint256"
        },
        {
          "internalType": "bytes",
          "name": "data",
          "type": "bytes"
        }
      ],
      "name": "safeTransferFrom",
      "outputs": [],
      "stateMutability": "nonpayable",
      "type": "function"
    },
    {
      "inputs": [
        {
          "internalType": "address",
          "name": "operator",
          "type": "address"
        },
        {
          "internalType": "bool",
          "name": "approved",
          "type": "bool"
        }
      ],
      "name": "setApprovalForAll",
      "outputs": [],
      "stateMutability": "nonpayable",
      "type": "function"
    },
    {
      "inputs": [
        {
          "internalType": "string",
          "name": "_baseTokenURI",
          "type": "string"
        }
      ],
      "name": "setBaseURI",
      "outputs": [],
      "stateMutability": "nonpayable",
      "type": "function"
    },
    {
      "inputs": [
        {
          "internalType": "bytes4",
          "name": "interfaceId",
          "type": "bytes4"
        }
      ],
      "name": "supportsInterface",
      "outputs": [
        {
          "internalType": "bool",
          "name": "",
          "type": "bool"
        }
      ],
      "stateMutability": "view",
      "type": "function"
    },
    {
      "inputs": [],
      "name": "symbol",
      "outputs": [
        {
          "internalType": "string",
          "name": "",
          "type": "string"
        }
      ],
      "stateMutability": "view",
      "type": "function"
    },
    {
      "inputs": [
        {
          "internalType": "uint256",
          "name": "index",
          "type": "uint256"
        }
      ],
      "name": "tokenByIndex",
      "outputs": [
        {
          "internalType": "uint256",
          "name": "",
          "type": "uint256"
        }
      ],
      "stateMutability": "view",
      "type": "function"
    },
    {
      "inputs": [
        {
          "internalType": "address",
          "name": "owner",
          "type": "address"
        },
        {
          "internalType": "uint256",
          "name": "index",
          "type": "uint256"
        }
      ],
      "name": "tokenOfOwnerByIndex",
      "outputs": [
        {
          "internalType": "uint256",
          "name": "",
          "type": "uint256"
        }
      ],
      "stateMutability": "view",
      "type": "function"
    },
    {
      "inputs": [
        {
          "internalType": "uint256",
          "name": "tokenId",
          "type": "uint256"
        }
      ],
      "name": "tokenURI",
      "outputs": [
        {
          "internalType": "string",
          "name": "",
          "type": "string"
        }
      ],
      "stateMutability": "view",
      "type": "function"
    },
    {
      "inputs": [
        {
          "internalType": "address",
          "name": "_owner",
          "type": "address"
        }
      ],
      "name": "tokensOfOwner",
      "outputs": [
        {
          "internalType": "uint256[]",
          "name": "",
          "type": "uint256[]"
        }
      ],
      "stateMutability": "view",
      "type": "function"
    },
    {
      "inputs": [],
      "name": "totalSupply",
      "outputs": [
        {
          "internalType": "uint256",
          "name": "",
          "type": "uint256"
        }
      ],
      "stateMutability": "view",
      "type": "function"
    },
    {
      "inputs": [
        {
          "internalType": "address",
          "name": "from",
          "type": "address"
        },
        {
          "internalType": "address",
          "name": "to",
          "type": "address"
        },
        {
          "internalType": "uint256",
          "name": "tokenId",
          "type": "uint256"
        }
      ],
      "name": "transferFrom",
      "outputs": [],
      "stateMutability": "nonpayable",
      "type": "function"
    },
    {
      "inputs": [
        {
          "internalType": "address",
          "name": "newOwner",
          "type": "address"
        }
      ],
      "name": "transferOwnership",
      "outputs": [],
      "stateMutability": "nonpayable",
      "type": "function"
    },
    {
      "inputs": [],
      "name": "withdraw",
      "outputs": [],
      "stateMutability": "payable",
      "type": "function"
    }
  ],
  "bytecode": "0x60806040523480156200001157600080fd5b506040516200499f3803806200499f833981810160405281019062000037919062000442565b6040518060400160405280600f81526020017f4e465420436f6c6c65637469626c6500000000000000000000000000000000008152506040518060400160405280600481526020017f4e465443000000000000000000000000000000000000000000000000000000008152508160009081620000b49190620006de565b508060019081620000c69190620006de565b505050620000e9620000dd6200010160201b60201c565b6200010960201b60201c565b620000fa81620001cf60201b60201c565b5062000848565b600033905090565b6000600a60009054906101000a900473ffffffffffffffffffffffffffffffffffffffff16905081600a60006101000a81548173ffffffffffffffffffffffffffffffffffffffff021916908373ffffffffffffffffffffffffffffffffffffffff1602179055508173ffffffffffffffffffffffffffffffffffffffff168173ffffffffffffffffffffffffffffffffffffffff167f8be0079c531659141344cd1fd0a4f28419497f9722a3daafe3b4186f6b6457e060405160405180910390a35050565b620001df620001f460201b60201c565b80600c9081620001f09190620006de565b5050565b620002046200010160201b60201c565b73ffffffffffffffffffffffffffffffffffffffff166200022a6200028560201b60201c565b73ffffffffffffffffffffffffffffffffffffffff161462000283576040517f08c379a00000000000000000000000000000000000000000000000000000000081526004016200027a9062000826565b60405180910390fd5b565b6000600a60009054906101000a900473ffffffffffffffffffffffffffffffffffffffff16905090565b6000604051905090565b600080fd5b600080fd5b600080fd5b600080fd5b6000601f19601f8301169050919050565b7f4e487b7100000000000000000000000000000000000000000000000000000000600052604160045260246000fd5b6200031882620002cd565b810181811067ffffffffffffffff821117156200033a5762000339620002de565b5b80604052505050565b60006200034f620002af565b90506200035d82826200030d565b919050565b600067ffffffffffffffff82111562000380576200037f620002de565b5b6200038b82620002cd565b9050602081019050919050565b60005b83811015620003b85780820151818401526020810190506200039b565b60008484015250505050565b6000620003db620003d58462000362565b62000343565b905082815260208101848484011115620003fa57620003f9620002c8565b5b6200040784828562000398565b509392505050565b600082601f830112620004275762000426620002c3565b5b815162000439848260208601620003c4565b91505092915050565b6000602082840312156200045b576200045a620002b9565b5b600082015167ffffffffffffffff8111156200047c576200047b620002be565b5b6200048a848285016200040f565b91505092915050565b600081519050919050565b7f4e487b7100000000000000000000000000000000000000000000000000000000600052602260045260246000fd5b60006002820490506001821680620004e657607f821691505b602082108103620004fc57620004fb6200049e565b5b50919050565b60008190508160005260206000209050919050565b60006020601f8301049050919050565b600082821b905092915050565b600060088302620005667fffffffffffffffffffffffffffffffffffffffffffffffffffffffffffffffff8262000527565b62000572868362000527565b95508019841693508086168417925050509392505050565b6000819050919050565b6000819050919050565b6000620005bf620005b9620005b3846200058a565b62000594565b6200058a565b9050919050565b6000819050919050565b620005db836200059e565b620005f3620005ea82620005c6565b84845462000534565b825550505050565b600090565b6200060a620005fb565b62000617818484620005d0565b505050565b5b818110156200063f576200063360008262000600565b6001810190506200061d565b5050565b601f8211156200068e57620006588162000502565b620006638462000517565b8101602085101562000673578190505b6200068b620006828562000517565b8301826200061c565b50505b505050565b600082821c905092915050565b6000620006b36000198460080262000693565b1980831691505092915050565b6000620006ce8383620006a0565b9150826002028217905092915050565b620006e98262000493565b67ffffffffffffffff811115620007055762000704620002de565b5b620007118254620004cd565b6200071e82828562000643565b600060209050601f83116001811462000756576000841562000741578287015190505b6200074d8582620006c0565b865550620007bd565b601f198416620007668662000502565b60005b82811015620007905784890151825560018201915060208501945060208101905062000769565b86831015620007b05784890151620007ac601f891682620006a0565b8355505b6001600288020188555050505b505050505050565b600082825260208201905092915050565b7f4f776e61626c653a2063616c6c6572206973206e6f7420746865206f776e6572600082015250565b60006200080e602083620007c5565b91506200081b82620007d6565b602082019050919050565b600060208201905081810360008301526200084181620007ff565b9050919050565b61414780620008586000396000f3fe6080604052600436106101b75760003560e01c806355f804b3116100ec57806395d89b411161008a578063c87b56dd11610064578063c87b56dd146105de578063d547cfb71461061b578063e985e9c514610646578063f2fde38b14610683576101b7565b806395d89b4114610561578063a22cb4651461058c578063b88d4fde146105b5576101b7565b8063715018a6116100c6578063715018a6146104b75780638462151c146104ce5780638d859f3e1461050b5780638da5cb5b14610536576101b7565b806355f804b3146104145780636352211e1461043d57806370a082311461047a576101b7565b806323b872dd116101595780633b4b1381116101335780633b4b1381146103885780633ccfd60b146103a457806342842e0e146103ae5780634f6ccce7146103d7576101b7565b806323b872dd146102f75780632f745c591461032057806332cb6b0c1461035d576101b7565b8063095ea7b311610195578063095ea7b31461026157806309d42b301461028a578063144100c7146102b557806318160ddd146102cc576101b7565b806301ffc9a7146101bc57806306fdde03146101f9578063081812fc14610224575b600080fd5b3480156101c857600080fd5b506101e360048036038101906101de91906128ae565b6106ac565b6040516101f091906128f6565b60405180910390f35b34801561020557600080fd5b5061020e610726565b60405161021b91906129a1565b60405180910390f35b34801561023057600080fd5b5061024b600480360381019061024691906129f9565b6107b8565b6040516102589190612a67565b60405180910390f35b34801561026d57600080fd5b5061028860048036038101906102839190612aae565b6107fe565b005b34801561029657600080fd5b5061029f610915565b6040516102ac9190612afd565b60405180910390f35b3480156102c157600080fd5b506102ca61091a565b005b3480156102d857600080fd5b506102e16109b1565b6040516102ee9190612afd565b60405180910390f35b34801561030357600080fd5b5061031e60048036038101906103199190612b18565b6109be565b005b34801561032c57600080fd5b5061034760048036038101906103429190612aae565b610a1e565b6040516103549190612afd565b60405180910390f35b34801561036957600080fd5b50610372610ac3565b60405161037f9190612afd565b60405180910390f35b6103a2600480360381019061039d91906129f9565b610ac8565b005b6103ac610c03565b005b3480156103ba57600080fd5b506103d560048036038101906103d09190612b18565b610d03565b005b3480156103e357600080fd5b506103fe60048036038101906103f991906129f9565b610d23565b60405161040b9190612afd565b60405180910390f35b34801561042057600080fd5b5061043b60048036038101906104369190612ca0565b610d94565b005b34801561044957600080fd5b50610464600480360381019061045f91906129f9565b610daf565b6040516104719190612a67565b60405180910390f35b34801561048657600080fd5b506104a1600480360381019061049c9190612ce9565b610e35565b6040516104ae9190612afd565b60405180910390f35b3480156104c357600080fd5b506104cc610eec565b005b3480156104da57600080fd5b506104f560048036038101906104f09190612ce9565b610f00565b6040516105029190612dd4565b60405180910390f35b34801561051757600080fd5b50610520610fae565b60405161052d9190612afd565b60405180910390f35b34801561054257600080fd5b5061054b610fb9565b6040516105589190612a67565b60405180910390f35b34801561056d57600080fd5b50610576610fe3565b60405161058391906129a1565b60405180910390f35b34801561059857600080fd5b506105b360048036038101906105ae9190612e22565b611075565b005b3480156105c157600080fd5b506105dc60048036038101906105d79190612f03565b61108b565b005b3480156105ea57600080fd5b50610605600480360381019061060091906129f9565b6110ed565b60405161061291906129a1565b60405180910390f35b34801561062757600080fd5b50610630611155565b60405161063d91906129a1565b60405180910390f35b34801561065257600080fd5b5061066d60048036038101906106689190612f86565b6111e3565b60405161067a91906128f6565b60405180910390f35b34801561068f57600080fd5b506106aa60048036038101906106a59190612ce9565b611277565b005b60007f780e9d63000000000000000000000000000000000000000000000000000000007bffffffffffffffffffffffffffffffffffffffffffffffffffffffff1916827bffffffffffffffffffffffffffffffffffffffffffffffffffffffff1916148061071f575061071e826112fa565b5b9050919050565b60606000805461073590612ff5565b80601f016020809104026020016040519081016040528092919081815260200182805461076190612ff5565b80156107ae5780601f10610783576101008083540402835291602001916107ae565b820191906000526020600020905b81548152906001019060200180831161079157829003601f168201915b5050505050905090565b60006107c3826113dc565b6004600083815260200190815260200160002060009054906101000a900473ffffffffffffffffffffffffffffffffffffffff169050919050565b600061080982610daf565b90508073ffffffffffffffffffffffffffffffffffffffff168373ffffffffffffffffffffffffffffffffffffffff1603610879576040517f08c379a000000000000000000000000000000000000000000000000000000000815260040161087090613098565b60405180910390fd5b8073ffffffffffffffffffffffffffffffffffffffff16610898611427565b73ffffffffffffffffffffffffffffffffffffffff1614806108c757506108c6816108c1611427565b6111e3565b5b610906576040517f08c379a00000000000000000000000000000000000000000000000000000000081526004016108fd9061312a565b60405180910390fd5b610910838361142f565b505050565b600381565b6109226114e8565b600061092e600b611566565b9050601e610946600a8361157490919063ffffffff16565b10610986576040517f08c379a000000000000000000000000000000000000000000000000000000000815260040161097d90613196565b60405180910390fd5b60005b600a8110156109ad5761099a61158a565b80806109a5906131e5565b915050610989565b5050565b6000600880549050905090565b6109cf6109c9611427565b826115af565b610a0e576040517f08c379a0000000000000000000000000000000000000000000000000000000008152600401610a059061329f565b60405180910390fd5b610a19838383611644565b505050565b6000610a2983610e35565b8210610a6a576040517f08c379a0000000000000000000000000000000000000000000000000000000008152600401610a6190613331565b60405180910390fd5b600660008473ffffffffffffffffffffffffffffffffffffffff1673ffffffffffffffffffffffffffffffffffffffff168152602001908152602001600020600083815260200190815260200160002054905092915050565b601e81565b6000610ad4600b611566565b9050601e610aeb838361157490919063ffffffff16565b1115610b2c576040517f08c379a0000000000000000000000000000000000000000000000000000000008152600401610b239061339d565b60405180910390fd5b600082118015610b3d575060038211155b610b7c576040517f08c379a0000000000000000000000000000000000000000000000000000000008152600401610b739061342f565b60405180910390fd5b610b968266038d7ea4c6800061193d90919063ffffffff16565b341015610bd8576040517f08c379a0000000000000000000000000000000000000000000000000000000008152600401610bcf906134c1565b60405180910390fd5b60005b82811015610bfe57610beb61158a565b8080610bf6906131e5565b915050610bdb565b505050565b610c0b6114e8565b600047905060008111610c53576040517f08c379a0000000000000000000000000000000000000000000000000000000008152600401610c4a9061352d565b60405180910390fd5b60003373ffffffffffffffffffffffffffffffffffffffff1682604051610c799061357e565b60006040518083038185875af1925050503d8060008114610cb6576040519150601f19603f3d011682016040523d82523d6000602084013e610cbb565b606091505b5050905080610cff576040517f08c379a0000000000000000000000000000000000000000000000000000000008152600401610cf6906135df565b60405180910390fd5b5050565b610d1e8383836040518060200160405280600081525061108b565b505050565b6000610d2d6109b1565b8210610d6e576040517f08c379a0000000000000000000000000000000000000000000000000000000008152600401610d6590613671565b60405180910390fd5b60088281548110610d8257610d81613691565b5b90600052602060002001549050919050565b610d9c6114e8565b80600c9081610dab919061386c565b5050565b600080610dbb83611953565b9050600073ffffffffffffffffffffffffffffffffffffffff168173ffffffffffffffffffffffffffffffffffffffff1603610e2c576040517f08c379a0000000000000000000000000000000000000000000000000000000008152600401610e239061398a565b60405180910390fd5b80915050919050565b60008073ffffffffffffffffffffffffffffffffffffffff168273ffffffffffffffffffffffffffffffffffffffff1603610ea5576040517f08c379a0000000000000000000000000000000000000000000000000000000008152600401610e9c90613a1c565b60405180910390fd5b600360008373ffffffffffffffffffffffffffffffffffffffff1673ffffffffffffffffffffffffffffffffffffffff168152602001908152602001600020549050919050565b610ef46114e8565b610efe6000611990565b565b60606000610f0d83610e35565b905060008167ffffffffffffffff811115610f2b57610f2a612b75565b5b604051908082528060200260200182016040528015610f595781602001602082028036833780820191505090505b50905060005b82811015610fa357610f718582610a1e565b828281518110610f8457610f83613691565b5b6020026020010181815250508080610f9b906131e5565b915050610f5f565b508092505050919050565b66038d7ea4c6800081565b6000600a60009054906101000a900473ffffffffffffffffffffffffffffffffffffffff16905090565b606060018054610ff290612ff5565b80601f016020809104026020016040519081016040528092919081815260200182805461101e90612ff5565b801561106b5780601f106110405761010080835404028352916020019161106b565b820191906000526020600020905b81548152906001019060200180831161104e57829003601f168201915b5050505050905090565b611087611080611427565b8383611a56565b5050565b61109c611096611427565b836115af565b6110db576040517f08c379a00000000000000000000000000000000000000000000000000000000081526004016110d29061329f565b60405180910390fd5b6110e784848484611bc2565b50505050565b60606110f8826113dc565b6000611102611c1e565b90506000815111611122576040518060200160405280600081525061114d565b8061112c84611cb0565b60405160200161113d929190613a78565b6040516020818303038152906040525b915050919050565b600c805461116290612ff5565b80601f016020809104026020016040519081016040528092919081815260200182805461118e90612ff5565b80156111db5780601f106111b0576101008083540402835291602001916111db565b820191906000526020600020905b8154815290600101906020018083116111be57829003601f168201915b505050505081565b6000600560008473ffffffffffffffffffffffffffffffffffffffff1673ffffffffffffffffffffffffffffffffffffffff16815260200190815260200160002060008373ffffffffffffffffffffffffffffffffffffffff1673ffffffffffffffffffffffffffffffffffffffff16815260200190815260200160002060009054906101000a900460ff16905092915050565b61127f6114e8565b600073ffffffffffffffffffffffffffffffffffffffff168173ffffffffffffffffffffffffffffffffffffffff16036112ee576040517f08c379a00000000000000000000000000000000000000000000000000000000081526004016112e590613b0e565b60405180910390fd5b6112f781611990565b50565b60007f80ac58cd000000000000000000000000000000000000000000000000000000007bffffffffffffffffffffffffffffffffffffffffffffffffffffffff1916827bffffffffffffffffffffffffffffffffffffffffffffffffffffffff191614806113c557507f5b5e139f000000000000000000000000000000000000000000000000000000007bffffffffffffffffffffffffffffffffffffffffffffffffffffffff1916827bffffffffffffffffffffffffffffffffffffffffffffffffffffffff1916145b806113d557506113d482611d7e565b5b9050919050565b6113e581611de8565b611424576040517f08c379a000000000000000000000000000000000000000000000000000000000815260040161141b9061398a565b60405180910390fd5b50565b600033905090565b816004600083815260200190815260200160002060006101000a81548173ffffffffffffffffffffffffffffffffffffffff021916908373ffffffffffffffffffffffffffffffffffffffff160217905550808273ffffffffffffffffffffffffffffffffffffffff166114a283610daf565b73ffffffffffffffffffffffffffffffffffffffff167f8c5be1e5ebec7d5bd14f71427d1e84f3dd0314c0f7b2291e5b200ac8c7c3b92560405160405180910390a45050565b6114f0611427565b73ffffffffffffffffffffffffffffffffffffffff1661150e610fb9565b73ffffffffffffffffffffffffffffffffffffffff1614611564576040517f08c379a000000000000000000000000000000000000000000000000000000000815260040161155b90613b7a565b60405180910390fd5b565b600081600001549050919050565b600081836115829190613b9a565b905092915050565b6000611596600b611566565b90506115a23382611e29565b6115ac600b611e47565b50565b6000806115bb83610daf565b90508073ffffffffffffffffffffffffffffffffffffffff168473ffffffffffffffffffffffffffffffffffffffff1614806115fd57506115fc81856111e3565b5b8061163b57508373ffffffffffffffffffffffffffffffffffffffff16611623846107b8565b73ffffffffffffffffffffffffffffffffffffffff16145b91505092915050565b8273ffffffffffffffffffffffffffffffffffffffff1661166482610daf565b73ffffffffffffffffffffffffffffffffffffffff16146116ba576040517f08c379a00000000000000000000000000000000000000000000000000000000081526004016116b190613c40565b60405180910390fd5b600073ffffffffffffffffffffffffffffffffffffffff168273ffffffffffffffffffffffffffffffffffffffff1603611729576040517f08c379a000000000000000000000000000000000000000000000000000000000815260040161172090613cd2565b60405180910390fd5b6117368383836001611e5d565b8273ffffffffffffffffffffffffffffffffffffffff1661175682610daf565b73ffffffffffffffffffffffffffffffffffffffff16146117ac576040517f08c379a00000000000000000000000000000000000000000000000000000000081526004016117a390613c40565b60405180910390fd5b6004600082815260200190815260200160002060006101000a81549073ffffffffffffffffffffffffffffffffffffffff02191690556001600360008573ffffffffffffffffffffffffffffffffffffffff1673ffffffffffffffffffffffffffffffffffffffff168152602001908152602001600020600082825403925050819055506001600360008473ffffffffffffffffffffffffffffffffffffffff1673ffffffffffffffffffffffffffffffffffffffff16815260200190815260200160002060008282540192505081905550816002600083815260200190815260200160002060006101000a81548173ffffffffffffffffffffffffffffffffffffffff021916908373ffffffffffffffffffffffffffffffffffffffff160217905550808273ffffffffffffffffffffffffffffffffffffffff168473ffffffffffffffffffffffffffffffffffffffff167fddf252ad1be2c89b69c2b068fc378daa952ba7f163c4a11628f55a4df523b3ef60405160405180910390a46119388383836001611fbb565b505050565b6000818361194b9190613cf2565b905092915050565b60006002600083815260200190815260200160002060009054906101000a900473ffffffffffffffffffffffffffffffffffffffff169050919050565b6000600a60009054906101000a900473ffffffffffffffffffffffffffffffffffffffff16905081600a60006101000a81548173ffffffffffffffffffffffffffffffffffffffff021916908373ffffffffffffffffffffffffffffffffffffffff1602179055508173ffffffffffffffffffffffffffffffffffffffff168173ffffffffffffffffffffffffffffffffffffffff167f8be0079c531659141344cd1fd0a4f28419497f9722a3daafe3b4186f6b6457e060405160405180910390a35050565b8173ffffffffffffffffffffffffffffffffffffffff168373ffffffffffffffffffffffffffffffffffffffff1603611ac4576040517f08c379a0000000000000000000000000000000000000000000000000000000008152600401611abb90613d80565b60405180910390fd5b80600560008573ffffffffffffffffffffffffffffffffffffffff1673ffffffffffffffffffffffffffffffffffffffff16815260200190815260200160002060008473ffffffffffffffffffffffffffffffffffffffff1673ffffffffffffffffffffffffffffffffffffffff16815260200190815260200160002060006101000a81548160ff0219169083151502179055508173ffffffffffffffffffffffffffffffffffffffff168373ffffffffffffffffffffffffffffffffffffffff167f17307eab39ab6107e8899845ad3d59bd9653f200f220920489ca2b5937696c3183604051611bb591906128f6565b60405180910390a3505050565b611bcd848484611644565b611bd984848484611fc1565b611c18576040517f08c379a0000000000000000000000000000000000000000000000000000000008152600401611c0f90613e12565b60405180910390fd5b50505050565b6060600c8054611c2d90612ff5565b80601f0160208091040260200160405190810160405280929190818152602001828054611c5990612ff5565b8015611ca65780601f10611c7b57610100808354040283529160200191611ca6565b820191906000526020600020905b815481529060010190602001808311611c8957829003601f168201915b5050505050905090565b606060006001611cbf84612148565b01905060008167ffffffffffffffff811115611cde57611cdd612b75565b5b6040519080825280601f01601f191660200182016040528015611d105781602001600182028036833780820191505090505b509050600082602001820190505b600115611d73578080600190039150507f3031323334353637383961626364656600000000000000000000000000000000600a86061a8153600a8581611d6757611d66613e32565b5b04945060008503611d1e575b819350505050919050565b60007f01ffc9a7000000000000000000000000000000000000000000000000000000007bffffffffffffffffffffffffffffffffffffffffffffffffffffffff1916827bffffffffffffffffffffffffffffffffffffffffffffffffffffffff1916149050919050565b60008073ffffffffffffffffffffffffffffffffffffffff16611e0a83611953565b73ffffffffffffffffffffffffffffffffffffffff1614159050919050565b611e4382826040518060200160405280600081525061229b565b5050565b6001816000016000828254019250508190555050565b611e69848484846122f6565b6001811115611ead576040517f08c379a0000000000000000000000000000000000000000000000000000000008152600401611ea490613ed3565b60405180910390fd5b6000829050600073ffffffffffffffffffffffffffffffffffffffff168573ffffffffffffffffffffffffffffffffffffffff1603611ef457611eef816122fc565b611f33565b8373ffffffffffffffffffffffffffffffffffffffff168573ffffffffffffffffffffffffffffffffffffffff1614611f3257611f318582612345565b5b5b600073ffffffffffffffffffffffffffffffffffffffff168473ffffffffffffffffffffffffffffffffffffffff1603611f7557611f70816124b2565b611fb4565b8473ffffffffffffffffffffffffffffffffffffffff168473ffffffffffffffffffffffffffffffffffffffff1614611fb357611fb28482612583565b5b5b5050505050565b50505050565b6000611fe28473ffffffffffffffffffffffffffffffffffffffff16612602565b1561213b578373ffffffffffffffffffffffffffffffffffffffff1663150b7a0261200b611427565b8786866040518563ffffffff1660e01b815260040161202d9493929190613f48565b6020604051808303816000875af192505050801561206957506040513d601f19601f820116820180604052508101906120669190613fa9565b60015b6120eb573d8060008114612099576040519150601f19603f3d011682016040523d82523d6000602084013e61209e565b606091505b5060008151036120e3576040517f08c379a00000000000000000000000000000000000000000000000000000000081526004016120da90613e12565b60405180910390fd5b805181602001fd5b63150b7a0260e01b7bffffffffffffffffffffffffffffffffffffffffffffffffffffffff1916817bffffffffffffffffffffffffffffffffffffffffffffffffffffffff191614915050612140565b600190505b949350505050565b600080600090507a184f03e93ff9f4daa797ed6e38ed64bf6a1f01000000000000000083106121a6577a184f03e93ff9f4daa797ed6e38ed64bf6a1f010000000000000000838161219c5761219b613e32565b5b0492506040810190505b6d04ee2d6d415b85acef810000000083106121e3576d04ee2d6d415b85acef810000000083816121d9576121d8613e32565b5b0492506020810190505b662386f26fc10000831061221257662386f26fc10000838161220857612207613e32565b5b0492506010810190505b6305f5e100831061223b576305f5e100838161223157612230613e32565b5b0492506008810190505b612710831061226057612710838161225657612255613e32565b5b0492506004810190505b60648310612283576064838161227957612278613e32565b5b0492506002810190505b600a8310612292576001810190505b80915050919050565b6122a58383612625565b6122b26000848484611fc1565b6122f1576040517f08c379a00000000000000000000000000000000000000000000000000000000081526004016122e890613e12565b60405180910390fd5b505050565b50505050565b6008805490506009600083815260200190815260200160002081905550600881908060018154018082558091505060019003906000526020600020016000909190919091505550565b6000600161235284610e35565b61235c9190613fd6565b9050600060076000848152602001908152602001600020549050818114612441576000600660008673ffffffffffffffffffffffffffffffffffffffff1673ffffffffffffffffffffffffffffffffffffffff168152602001908152602001600020600084815260200190815260200160002054905080600660008773ffffffffffffffffffffffffffffffffffffffff1673ffffffffffffffffffffffffffffffffffffffff168152602001908152602001600020600084815260200190815260200160002081905550816007600083815260200190815260200160002081905550505b6007600084815260200190815260200160002060009055600660008573ffffffffffffffffffffffffffffffffffffffff1673ffffffffffffffffffffffffffffffffffffffff16815260200190815260200160002060008381526020019081526020016000206000905550505050565b600060016008805490506124c69190613fd6565b90506000600960008481526020019081526020016000205490506000600883815481106124f6576124f5613691565b5b90600052602060002001549050806008838154811061251857612517613691565b5b9060005260206000200181905550816009600083815260200190815260200160002081905550600960008581526020019081526020016000206000905560088054806125675761256661400a565b5b6001900381819060005260206000200160009055905550505050565b600061258e83610e35565b905081600660008573ffffffffffffffffffffffffffffffffffffffff1673ffffffffffffffffffffffffffffffffffffffff168152602001908152602001600020600083815260200190815260200160002081905550806007600084815260200190815260200160002081905550505050565b6000808273ffffffffffffffffffffffffffffffffffffffff163b119050919050565b600073ffffffffffffffffffffffffffffffffffffffff168273ffffffffffffffffffffffffffffffffffffffff1603612694576040517f08c379a000000000000000000000000000000000000000000000000000000000815260040161268b90614085565b60405180910390fd5b61269d81611de8565b156126dd576040517f08c379a00000000000000000000000000000000000000000000000000000000081526004016126d4906140f1565b60405180910390fd5b6126eb600083836001611e5d565b6126f481611de8565b15612734576040517f08c379a000000000000000000000000000000000000000000000000000000000815260040161272b906140f1565b60405180910390fd5b6001600360008473ffffffffffffffffffffffffffffffffffffffff1673ffffffffffffffffffffffffffffffffffffffff16815260200190815260200160002060008282540192505081905550816002600083815260200190815260200160002060006101000a81548173ffffffffffffffffffffffffffffffffffffffff021916908373ffffffffffffffffffffffffffffffffffffffff160217905550808273ffffffffffffffffffffffffffffffffffffffff16600073ffffffffffffffffffffffffffffffffffffffff167fddf252ad1be2c89b69c2b068fc378daa952ba7f163c4a11628f55a4df523b3ef60405160405180910390a461283e600083836001611fbb565b5050565b6000604051905090565b600080fd5b600080fd5b60007fffffffff0000000000000000000000000000000000000000000000000000000082169050919050565b61288b81612856565b811461289657600080fd5b50565b6000813590506128a881612882565b92915050565b6000602082840312156128c4576128c361284c565b5b60006128d284828501612899565b91505092915050565b60008115159050919050565b6128f0816128db565b82525050565b600060208201905061290b60008301846128e7565b92915050565b600081519050919050565b600082825260208201905092915050565b60005b8381101561294b578082015181840152602081019050612930565b60008484015250505050565b6000601f19601f8301169050919050565b600061297382612911565b61297d818561291c565b935061298d81856020860161292d565b61299681612957565b840191505092915050565b600060208201905081810360008301526129bb8184612968565b905092915050565b6000819050919050565b6129d6816129c3565b81146129e157600080fd5b50565b6000813590506129f3816129cd565b92915050565b600060208284031215612a0f57612a0e61284c565b5b6000612a1d848285016129e4565b91505092915050565b600073ffffffffffffffffffffffffffffffffffffffff82169050919050565b6000612a5182612a26565b9050919050565b612a6181612a46565b82525050565b6000602082019050612a7c6000830184612a58565b92915050565b612a8b81612a46565b8114612a9657600080fd5b50565b600081359050612aa881612a82565b92915050565b60008060408385031215612ac557612ac461284c565b5b6000612ad385828601612a99565b9250506020612ae4858286016129e4565b9150509250929050565b612af7816129c3565b82525050565b6000602082019050612b126000830184612aee565b92915050565b600080600060608486031215612b3157612b3061284c565b5b6000612b3f86828701612a99565b9350506020612b5086828701612a99565b9250506040612b61868287016129e4565b9150509250925092565b600080fd5b600080fd5b7f4e487b7100000000000000000000000000000000000000000000000000000000600052604160045260246000fd5b612bad82612957565b810181811067ffffffffffffffff82111715612bcc57612bcb612b75565b5b80604052505050565b6000612bdf612842565b9050612beb8282612ba4565b919050565b600067ffffffffffffffff821115612c0b57612c0a612b75565b5b612c1482612957565b9050602081019050919050565b82818337600083830152505050565b6000612c43612c3e84612bf0565b612bd5565b905082815260208101848484011115612c5f57612c5e612b70565b5b612c6a848285612c21565b509392505050565b600082601f830112612c8757612c86612b6b565b5b8135612c97848260208601612c30565b91505092915050565b600060208284031215612cb657612cb561284c565b5b600082013567ffffffffffffffff811115612cd457612cd3612851565b5b612ce084828501612c72565b91505092915050565b600060208284031215612cff57612cfe61284c565b5b6000612d0d84828501612a99565b91505092915050565b600081519050919050565b600082825260208201905092915050565b6000819050602082019050919050565b612d4b816129c3565b82525050565b6000612d5d8383612d42565b60208301905092915050565b6000602082019050919050565b6000612d8182612d16565b612d8b8185612d21565b9350612d9683612d32565b8060005b83811015612dc7578151612dae8882612d51565b9750612db983612d69565b925050600181019050612d9a565b5085935050505092915050565b60006020820190508181036000830152612dee8184612d76565b905092915050565b612dff816128db565b8114612e0a57600080fd5b50565b600081359050612e1c81612df6565b92915050565b60008060408385031215612e3957612e3861284c565b5b6000612e4785828601612a99565b9250506020612e5885828601612e0d565b9150509250929050565b600067ffffffffffffffff821115612e7d57612e7c612b75565b5b612e8682612957565b9050602081019050919050565b6000612ea6612ea184612e62565b612bd5565b905082815260208101848484011115612ec257612ec1612b70565b5b612ecd848285612c21565b509392505050565b600082601f830112612eea57612ee9612b6b565b5b8135612efa848260208601612e93565b91505092915050565b60008060008060808587031215612f1d57612f1c61284c565b5b6000612f2b87828801612a99565b9450506020612f3c87828801612a99565b9350506040612f4d878288016129e4565b925050606085013567ffffffffffffffff811115612f6e57612f6d612851565b5b612f7a87828801612ed5565b91505092959194509250565b60008060408385031215612f9d57612f9c61284c565b5b6000612fab85828601612a99565b9250506020612fbc85828601612a99565b9150509250929050565b7f4e487b7100000000000000000000000000000000000000000000000000000000600052602260045260246000fd5b6000600282049050600182168061300d57607f821691505b6020821081036130205761301f612fc6565b5b50919050565b7f4552433732313a20617070726f76616c20746f2063757272656e74206f776e6560008201527f7200000000000000000000000000000000000000000000000000000000000000602082015250565b600061308260218361291c565b915061308d82613026565b604082019050919050565b600060208201905081810360008301526130b181613075565b9050919050565b7f4552433732313a20617070726f76652063616c6c6572206973206e6f7420746f60008201527f6b656e206f776e6572206f7220617070726f76656420666f7220616c6c000000602082015250565b6000613114603d8361291c565b915061311f826130b8565b604082019050919050565b6000602082019050818103600083015261314381613107565b9050919050565b7f4e6f7420656e6f756768204e4654730000000000000000000000000000000000600082015250565b6000613180600f8361291c565b915061318b8261314a565b602082019050919050565b600060208201905081810360008301526131af81613173565b9050919050565b7f4e487b7100000000000000000000000000000000000000000000000000000000600052601160045260246000fd5b60006131f0826129c3565b91507fffffffffffffffffffffffffffffffffffffffffffffffffffffffffffffffff8203613222576132216131b6565b5b600182019050919050565b7f4552433732313a2063616c6c6572206973206e6f7420746f6b656e206f776e6560008201527f72206f7220617070726f76656400000000000000000000000000000000000000602082015250565b6000613289602d8361291c565b91506132948261322d565b604082019050919050565b600060208201905081810360008301526132b88161327c565b9050919050565b7f455243373231456e756d657261626c653a206f776e657220696e646578206f7560008201527f74206f6620626f756e6473000000000000000000000000000000000000000000602082015250565b600061331b602b8361291c565b9150613326826132bf565b604082019050919050565b6000602082019050818103600083015261334a8161330e565b9050919050565b7f4e6f7420656e6f756768204e4654732100000000000000000000000000000000600082015250565b600061338760108361291c565b915061339282613351565b602082019050919050565b600060208201905081810360008301526133b68161337a565b9050919050565b7f43616e6e6f74206d696e7420737065636966696564206e756d626572206f662060008201527f4e46547300000000000000000000000000000000000000000000000000000000602082015250565b600061341960248361291c565b9150613424826133bd565b604082019050919050565b600060208201905081810360008301526134488161340c565b9050919050565b7f4e6f7420656e6f75676820657468657220746f2070757263687365204e46545360008201527f2e00000000000000000000000000000000000000000000000000000000000000602082015250565b60006134ab60218361291c565b91506134b68261344f565b604082019050919050565b600060208201905081810360008301526134da8161349e565b9050919050565b7f4e6f206574686572206c65667420746f20776974686472617700000000000000600082015250565b600061351760198361291c565b9150613522826134e1565b602082019050919050565b600060208201905081810360008301526135468161350a565b9050919050565b600081905092915050565b50565b600061356860008361354d565b915061357382613558565b600082019050919050565b60006135898261355b565b9150819050919050565b7f5472616e73666572206661696c65642e00000000000000000000000000000000600082015250565b60006135c960108361291c565b91506135d482613593565b602082019050919050565b600060208201905081810360008301526135f8816135bc565b9050919050565b7f455243373231456e756d657261626c653a20676c6f62616c20696e646578206f60008201527f7574206f6620626f756e64730000000000000000000000000000000000000000602082015250565b600061365b602c8361291c565b9150613666826135ff565b604082019050919050565b6000602082019050818103600083015261368a8161364e565b9050919050565b7f4e487b7100000000000000000000000000000000000000000000000000000000600052603260045260246000fd5b60008190508160005260206000209050919050565b60006020601f8301049050919050565b600082821b905092915050565b6000600883026137227fffffffffffffffffffffffffffffffffffffffffffffffffffffffffffffffff826136e5565b61372c86836136e5565b95508019841693508086168417925050509392505050565b6000819050919050565b600061376961376461375f846129c3565b613744565b6129c3565b9050919050565b6000819050919050565b6137838361374e565b61379761378f82613770565b8484546136f2565b825550505050565b600090565b6137ac61379f565b6137b781848461377a565b505050565b5b818110156137db576137d06000826137a4565b6001810190506137bd565b5050565b601f821115613820576137f1816136c0565b6137fa846136d5565b81016020851015613809578190505b61381d613815856136d5565b8301826137bc565b50505b505050565b600082821c905092915050565b600061384360001984600802613825565b1980831691505092915050565b600061385c8383613832565b9150826002028217905092915050565b61387582612911565b67ffffffffffffffff81111561388e5761388d612b75565b5b6138988254612ff5565b6138a38282856137df565b600060209050601f8311600181146138d657600084156138c4578287015190505b6138ce8582613850565b865550613936565b601f1984166138e4866136c0565b60005b8281101561390c578489015182556001820191506020850194506020810190506138e7565b868310156139295784890151613925601f891682613832565b8355505b6001600288020188555050505b505050505050565b7f4552433732313a20696e76616c696420746f6b656e2049440000000000000000600082015250565b600061397460188361291c565b915061397f8261393e565b602082019050919050565b600060208201905081810360008301526139a381613967565b9050919050565b7f4552433732313a2061646472657373207a65726f206973206e6f74206120766160008201527f6c6964206f776e65720000000000000000000000000000000000000000000000602082015250565b6000613a0660298361291c565b9150613a11826139aa565b604082019050919050565b60006020820190508181036000830152613a35816139f9565b9050919050565b600081905092915050565b6000613a5282612911565b613a5c8185613a3c565b9350613a6c81856020860161292d565b80840191505092915050565b6000613a848285613a47565b9150613a908284613a47565b91508190509392505050565b7f4f776e61626c653a206e6577206f776e657220697320746865207a65726f206160008201527f6464726573730000000000000000000000000000000000000000000000000000602082015250565b6000613af860268361291c565b9150613b0382613a9c565b604082019050919050565b60006020820190508181036000830152613b2781613aeb565b9050919050565b7f4f776e61626c653a2063616c6c6572206973206e6f7420746865206f776e6572600082015250565b6000613b6460208361291c565b9150613b6f82613b2e565b602082019050919050565b60006020820190508181036000830152613b9381613b57565b9050919050565b6000613ba5826129c3565b9150613bb0836129c3565b9250828201905080821115613bc857613bc76131b6565b5b92915050565b7f4552433732313a207472616e736665722066726f6d20696e636f72726563742060008201527f6f776e6572000000000000000000000000000000000000000000000000000000602082015250565b6000613c2a60258361291c565b9150613c3582613bce565b604082019050919050565b60006020820190508181036000830152613c5981613c1d565b9050919050565b7f4552433732313a207472616e7366657220746f20746865207a65726f2061646460008201527f7265737300000000000000000000000000000000000000000000000000000000602082015250565b6000613cbc60248361291c565b9150613cc782613c60565b604082019050919050565b60006020820190508181036000830152613ceb81613caf565b9050919050565b6000613cfd826129c3565b9150613d08836129c3565b9250828202613d16816129c3565b91508282048414831517613d2d57613d2c6131b6565b5b5092915050565b7f4552433732313a20617070726f766520746f2063616c6c657200000000000000600082015250565b6000613d6a60198361291c565b9150613d7582613d34565b602082019050919050565b60006020820190508181036000830152613d9981613d5d565b9050919050565b7f4552433732313a207472616e7366657220746f206e6f6e20455243373231526560008201527f63656976657220696d706c656d656e7465720000000000000000000000000000602082015250565b6000613dfc60328361291c565b9150613e0782613da0565b604082019050919050565b60006020820190508181036000830152613e2b81613def565b9050919050565b7f4e487b7100000000000000000000000000000000000000000000000000000000600052601260045260246000fd5b7f455243373231456e756d657261626c653a20636f6e736563757469766520747260008201527f616e7366657273206e6f7420737570706f727465640000000000000000000000602082015250565b6000613ebd60358361291c565b9150613ec882613e61565b604082019050919050565b60006020820190508181036000830152613eec81613eb0565b9050919050565b600081519050919050565b600082825260208201905092915050565b6000613f1a82613ef3565b613f248185613efe565b9350613f3481856020860161292d565b613f3d81612957565b840191505092915050565b6000608082019050613f5d6000830187612a58565b613f6a6020830186612a58565b613f776040830185612aee565b8181036060830152613f898184613f0f565b905095945050505050565b600081519050613fa381612882565b92915050565b600060208284031215613fbf57613fbe61284c565b5b6000613fcd84828501613f94565b91505092915050565b6000613fe1826129c3565b9150613fec836129c3565b9250828203905081811115614004576140036131b6565b5b92915050565b7f4e487b7100000000000000000000000000000000000000000000000000000000600052603160045260246000fd5b7f4552433732313a206d696e7420746f20746865207a65726f2061646472657373600082015250565b600061406f60208361291c565b915061407a82614039565b602082019050919050565b6000602082019050818103600083015261409e81614062565b9050919050565b7f4552433732313a20746f6b656e20616c7265616479206d696e74656400000000600082015250565b60006140db601c8361291c565b91506140e6826140a5565b602082019050919050565b6000602082019050818103600083015261410a816140ce565b905091905056fea26469706673582212207b5fbda228ad8a2850d50d588e1ee4e4a3aa3cd51f65df1a20db42d7da9a8c8364736f6c63430008120033",
  "linkReferences": {},
  "deployedLinkReferences": {}
}